{
  "contractName": "Kernel",
  "abi": [
    {
      "constant": true,
      "inputs": [
        {
          "name": "",
          "type": "bytes1"
        }
      ],
      "name": "opCodes",
      "outputs": [
        {
          "name": "",
          "type": "uint8"
        }
      ],
      "payable": false,
      "stateMutability": "view",
      "type": "function"
    },
    {
      "constant": true,
      "inputs": [
        {
          "name": "oCode",
          "type": "bytes"
        }
      ],
      "name": "codeLength",
      "outputs": [
        {
          "name": "len",
          "type": "uint256"
        }
      ],
      "payable": false,
      "stateMutability": "pure",
      "type": "function"
    },
    {
      "constant": true,
      "inputs": [
        {
          "name": "procedureAddress",
          "type": "address"
        }
      ],
      "name": "validateContract",
      "outputs": [
        {
          "name": "",
          "type": "uint8"
        }
      ],
      "payable": false,
      "stateMutability": "view",
      "type": "function"
    },
    {
      "constant": true,
      "inputs": [
        {
          "name": "oCode",
          "type": "bytes"
        }
      ],
      "name": "validate",
      "outputs": [
        {
          "name": "err",
          "type": "uint8"
        }
      ],
      "payable": false,
      "stateMutability": "pure",
      "type": "function"
    },
    {
      "constant": true,
      "inputs": [
        {
          "name": "oCode",
          "type": "bytes"
        }
      ],
      "name": "codePosition",
      "outputs": [
        {
          "name": "code",
          "type": "uint256"
        }
      ],
      "payable": false,
      "stateMutability": "pure",
      "type": "function"
    },
    {
      "inputs": [],
      "payable": false,
      "stateMutability": "nonpayable",
      "type": "constructor"
    },
    {
      "payable": false,
      "stateMutability": "nonpayable",
      "type": "fallback"
    },
    {
      "anonymous": false,
      "inputs": [
        {
          "indexed": false,
          "name": "message",
          "type": "string"
        }
      ],
      "name": "KernelLog",
      "type": "event"
    },
    {
      "constant": true,
      "inputs": [],
      "name": "testGetter",
      "outputs": [
        {
          "name": "",
          "type": "uint256"
        }
      ],
      "payable": false,
      "stateMutability": "view",
      "type": "function"
    },
    {
      "constant": true,
      "inputs": [
        {
          "name": "addr",
          "type": "uint256"
        }
      ],
      "name": "anyTestGetter",
      "outputs": [
        {
          "name": "",
          "type": "uint256"
        }
      ],
      "payable": false,
      "stateMutability": "view",
      "type": "function"
    },
    {
      "constant": false,
      "inputs": [
        {
          "name": "value",
          "type": "uint256"
        }
      ],
      "name": "testSetter",
      "outputs": [],
      "payable": false,
      "stateMutability": "nonpayable",
      "type": "function"
    },
    {
      "constant": false,
      "inputs": [
        {
          "name": "key",
          "type": "bytes24"
        }
      ],
      "name": "setEntryProcedure",
      "outputs": [],
      "payable": false,
      "stateMutability": "nonpayable",
      "type": "function"
    },
    {
      "constant": false,
      "inputs": [
        {
          "name": "name",
          "type": "bytes24"
        },
        {
          "name": "procedureAddress",
          "type": "address"
        },
        {
          "name": "caps",
          "type": "uint256[]"
        }
      ],
      "name": "registerProcedure",
      "outputs": [
        {
          "name": "err",
          "type": "uint8"
        },
        {
          "name": "retAddress",
          "type": "address"
        }
      ],
      "payable": false,
      "stateMutability": "nonpayable",
      "type": "function"
    },
    {
      "constant": false,
      "inputs": [
        {
          "name": "name",
          "type": "bytes24"
        },
        {
          "name": "procedureAddress",
          "type": "address"
        },
        {
          "name": "caps",
          "type": "uint256[]"
        }
      ],
      "name": "registerAnyProcedure",
      "outputs": [
        {
          "name": "err",
          "type": "uint8"
        },
        {
          "name": "retAddress",
          "type": "address"
        }
      ],
      "payable": false,
      "stateMutability": "nonpayable",
      "type": "function"
    },
    {
      "constant": false,
      "inputs": [
        {
          "name": "name",
          "type": "bytes24"
        }
      ],
      "name": "deleteProcedure",
      "outputs": [
        {
          "name": "err",
          "type": "uint8"
        },
        {
          "name": "procedureAddress",
          "type": "address"
        }
      ],
      "payable": false,
      "stateMutability": "nonpayable",
      "type": "function"
    },
    {
      "constant": true,
      "inputs": [],
      "name": "listProcedures",
      "outputs": [
        {
          "name": "",
          "type": "bytes24[]"
        }
      ],
      "payable": false,
      "stateMutability": "view",
      "type": "function"
    },
    {
      "constant": true,
      "inputs": [],
      "name": "returnRawProcedureTable",
      "outputs": [
        {
          "name": "",
          "type": "uint256[]"
        }
      ],
      "payable": false,
      "stateMutability": "view",
      "type": "function"
    },
    {
      "constant": true,
      "inputs": [],
      "name": "returnProcedureTable",
      "outputs": [
        {
          "name": "",
          "type": "uint256[]"
        }
      ],
      "payable": false,
      "stateMutability": "view",
      "type": "function"
    },
    {
      "constant": true,
      "inputs": [
        {
          "name": "name",
          "type": "bytes24"
        }
      ],
      "name": "getProcedure",
      "outputs": [
        {
          "name": "",
          "type": "address"
        }
      ],
      "payable": false,
      "stateMutability": "view",
      "type": "function"
    },
    {
      "constant": false,
      "inputs": [
        {
          "name": "name",
          "type": "bytes24"
        },
        {
          "name": "fselector",
          "type": "string"
        },
        {
          "name": "payload",
          "type": "bytes"
        },
        {
          "name": "retSize",
          "type": "uint256"
        }
      ],
      "name": "executeProcedure",
      "outputs": [
        {
          "name": "retVal",
          "type": "uint256"
        }
      ],
      "payable": false,
      "stateMutability": "nonpayable",
      "type": "function"
    }
  ],
  "bytecode": "0x608060405234801561001057600080fd5b506003618000556137dd806100266000396000f3006080604052600436106100f1576000357c0100000000000000000000000000000000000000000000000000000000900463ffffffff1680630133beb0146107db5780630866a87d14610806578063087536ec1461086f5780630ce535e8146108ec5780631cbd0f391461096457806320fc0a951461099c5780635acf061a14610a215780636178db0f14610a7e5780637cd5355b14610aea5780637e7e884114610bd2578063be0159a414610c3e578063c16e50ef14610d26578063c5ce720414610da9578063dfe4399214610dd6578063e03033b114610e53578063e34bf5c514610e94578063e912d19514610f00575b3480156100fd57600080fd5b506000806000806000806000806000806000606060008061011c610fe2565b1561015f5761015e336000368080601f016020809104026020016040519081016040528093929190818152602001838380828437820191505050505050611019565b5b6000366000818110151561016f57fe5b905001357f010000000000000000000000000000000000000000000000000000000000000090047f0100000000000000000000000000000000000000000000000000000000000000027effffffffffffffffffffffffffffffffffffffffffffffffffffffffffffff19167f010000000000000000000000000000000000000000000000000000000000000090049b5060008c60ff161415610210576107cb565b60038c60ff161415610420576102266001611091565b9c506801000000000000000061023c6021611091565b81151561024557fe5b0468010000000000000000029a5061025d6041611091565b995060616000369050111561027b5760616000369050039850610280565b600098505b6102bb600360009054906101000a900468010000000000000000026801000000000000000090048c8f600161116b909392919063ffffffff16565b9d506102d18b600161128e90919063ffffffff16565b9750600360009054906101000a9004680100000000000000000296508a600360006101000a81548177ffffffffffffffffffffffffffffffffffffffffffffffff021916908368010000000000000000900402179055508d156104105761034f565b6000602082066020038201604051915080820160405250919050565b610395565b6000602082066020038201604051915080156103895760005b81811415156103875760008184015260208101905061036d565b505b80820160405250919050565b6000808a156103b2576103a78b610333565b91508a606183378a90505b8a15156103c25760009150600090505b6103cb8c610354565b8c8183858e5af460086101000a8b046003558015156103fa576103ee6020610333565b82516016018152602081fd5b6001811415610407578d82f35b5050505061041b565b602160005260206000fd5b6107ca565b60078c60ff1614156104a6576104366001611091565b9c506104426021611091565b955061044e6041611091565b945061048b600360009054906101000a90046801000000000000000002680100000000000000009004878f60016112ba909392919063ffffffff16565b9d508d1561049b57848655600080f35b601660005260206000f35b60098c60ff1614156107bf576104bc6001611091565b9c506104c86021611091565b9350836040519080825280602002602001820160405280156104f95781602001602082028038833980820191505090505b509250600091505b838210156105515761051b82600201602002600101611091565b600102838381518110151561052c57fe5b9060200190602002019060001916908160001916815250508180600101925050610501565b61056384600201602002600101611091565b60010290506105a3600360009054906101000a90046801000000000000000002680100000000000000009004848f60016113cf909392919063ffffffff16565b9d508d156107b45760008414156105d7578060405180826000191660001916815260200191505060405180910390a0600080f35b6001841415610620578260008151811015156105ef57fe5b90602001906020020151600019168160405180826000191660001916815260200191505060405180910390a1600080f35b60028414156106865782600181518110151561063857fe5b906020019060200201516000191683600081518110151561065557fe5b90602001906020020151600019168260405180826000191660001916815260200191505060405180910390a2600080f35b60038414156107095782600281518110151561069e57fe5b90602001906020020151600019168360018151811015156106bb57fe5b90602001906020020151600019168460008151811015156106d857fe5b90602001906020020151600019168360405180826000191660001916815260200191505060405180910390a3600080f35b60048414156107a95782600381518110151561072157fe5b906020019060200201516000191683600281518110151561073e57fe5b906020019060200201516000191684600181518110151561075b57fe5b906020019060200201516000191685600081518110151561077857fe5b90602001906020020151600019168460405180826000191660001916815260200191505060405180910390a4600080f35b602c60005260206000fd5b602160005260206000fd5b600560b053600160b0a05b5b5050505050505050505050505050005b3480156107e757600080fd5b506107f06115ac565b6040518082815260200191505060405180910390f35b34801561081257600080fd5b5061085360048036038101908080357effffffffffffffffffffffffffffffffffffffffffffffffffffffffffffff191690602001909291905050506115bb565b604051808260ff1660ff16815260200191505060405180910390f35b34801561087b57600080fd5b506108d6600480360381019080803590602001908201803590602001908080601f01602080910402602001604051908101604052809392919081815260200183838082843782019150505050505091929192905050506115db565b6040518082815260200191505060405180910390f35b3480156108f857600080fd5b50610922600480360381019080803567ffffffffffffffff191690602001909291905050506115e6565b604051808273ffffffffffffffffffffffffffffffffffffffff1673ffffffffffffffffffffffffffffffffffffffff16815260200191505060405180910390f35b34801561097057600080fd5b5061099a600480360381019080803567ffffffffffffffff19169060200190929190505050611603565b005b3480156109a857600080fd5b506109d2600480360381019080803567ffffffffffffffff19169060200190929190505050611641565b604051808360ff1660ff1681526020018273ffffffffffffffffffffffffffffffffffffffff1673ffffffffffffffffffffffffffffffffffffffff1681526020019250505060405180910390f35b348015610a2d57600080fd5b50610a62600480360381019080803573ffffffffffffffffffffffffffffffffffffffff16906020019092919050505061170b565b604051808260ff1660ff16815260200191505060405180910390f35b348015610a8a57600080fd5b50610a9361176d565b6040518080602001828103825283818151815260200191508051906020019060200280838360005b83811015610ad6578082015181840152602081019050610abb565b505050509050019250505060405180910390f35b348015610af657600080fd5b50610b83600480360381019080803567ffffffffffffffff19169060200190929190803573ffffffffffffffffffffffffffffffffffffffff1690602001909291908035906020019082018035906020019080806020026020016040519081016040528093929190818152602001838360200280828437820191505050505050919291929050505061177e565b604051808360ff1660ff1681526020018273ffffffffffffffffffffffffffffffffffffffff1673ffffffffffffffffffffffffffffffffffffffff1681526020019250505060405180910390f35b348015610bde57600080fd5b50610be761181f565b6040518080602001828103825283818151815260200191508051906020019060200280838360005b83811015610c2a578082015181840152602081019050610c0f565b505050509050019250505060405180910390f35b348015610c4a57600080fd5b50610cd7600480360381019080803567ffffffffffffffff19169060200190929190803573ffffffffffffffffffffffffffffffffffffffff16906020019092919080359060200190820180359060200190808060200260200160405190810160405280939291908181526020018383602002808284378201915050505050509192919290505050611830565b604051808360ff1660ff1681526020018273ffffffffffffffffffffffffffffffffffffffff1673ffffffffffffffffffffffffffffffffffffffff1681526020019250505060405180910390f35b348015610d3257600080fd5b50610d8d600480360381019080803590602001908201803590602001908080601f01602080910402602001604051908101604052809392919081815260200183838082843782019150505050505091929192905050506118a7565b604051808260ff1660ff16815260200191505060405180910390f35b348015610db557600080fd5b50610dd460048036038101908080359060200190929190505050612247565b005b348015610de257600080fd5b50610e3d600480360381019080803590602001908201803590602001908080601f016020809104026020016040519081016040528093929190818152602001838380828437820191505050505050919291929050505061224f565b6040518082815260200191505060405180910390f35b348015610e5f57600080fd5b50610e7e6004803603810190808035906020019092919050505061225f565b6040518082815260200191505060405180910390f35b348015610ea057600080fd5b50610ea961226c565b6040518080602001828103825283818151815260200191508051906020019060200280838360005b83811015610eec578082015181840152602081019050610ed1565b505050509050019250505060405180910390f35b348015610f0c57600080fd5b50610fcc600480360381019080803567ffffffffffffffff19169060200190929190803590602001908201803590602001908080601f0160208091040260200160405190810160405280939291908181526020018383808284378201915050505050509192919290803590602001908201803590602001908080601f01602080910402602001604051908101604052809392919081815260200183838082843782019150505050505091929192908035906020019092919050505061227d565b6040518082815260200191505060405180910390f35b6000806801000000000000000002600360009054906101000a9004680100000000000000000267ffffffffffffffff191614905090565b60008060209150611086600460009054906101000a9004680100000000000000000260206040519081016040528060008152506000368080601f0160208091040260200160405190810160405280939291908181526020018383808284378201915050505050508561227d565b905080600052816000f35b6000806000809150600090505b6020811015611161576008829060020a02915060003682860181811015156110c257fe5b905001357f010000000000000000000000000000000000000000000000000000000000000090047f0100000000000000000000000000000000000000000000000000000000000000027effffffffffffffffffffffffffffffffffffffffffffffffffffffffffffff19167f0100000000000000000000000000000000000000000000000000000000000000900482179150808060010191505061109e565b8192505050919050565b600061117561373c565b61117d613777565b6000611188876124c8565b9250600083604001515114806111a5575060018360400151510385115b156111b35760009350611283565b8260400151858151811015156111c557fe5b9060200190602002015191506003826000015160ff161415156111eb5760009350611283565b600082602001515114156112025760019350611283565b600090505b816020015151811015611282578567ffffffffffffffff19166801000000000000000083602001518381518110151561123c57fe5b9060200190602002015181151561124f57fe5b04680100000000000000000267ffffffffffffffff191614156112755760019350611283565b8080600101915050611207565b5b505050949350505050565b60006112b2600060016112ac85680100000000000000009004612757565b0161282a565b905092915050565b60006112c461373c565b6112cc613777565b60008060006112da896124c8565b9450600085604001515114806112f7575060018560400151510387115b1561130557600095506113c2565b84604001518781518110151561131757fe5b906020019060200201519350836000015160ff16925060078314151561134057600095506113c2565b6002846020015151101561135757600095506113c2565b8360200151600081518110151561136a57fe5b9060200190602002015191508360200151600181518110151561138957fe5b9060200190602002015190506007831480156113a55750818810155b80156113b357508082018811155b156113c157600195506113c2565b5b5050505050949350505050565b60006113d961373c565b6113e1613777565b60008060606000806113f28b6124c8565b96506000876040015151148061140f575060018760400151510389115b1561141d576000975061159d565b86604001518981518110151561142f57fe5b906020019060200201519550856000015160ff169450600985141515611458576000975061159d565b6001866020015151101561146f576000975061159d565b8560200151600081518110151561148257fe5b906020019060200201519350836040519080825280602002602001820160405280156114bd5781602001602082028038833980820191505090505b509250600091505b83821015611522578560200151600183018151811015156114e257fe5b9060200190602002015160010283838151811015156114fd57fe5b90602001906020020190600019169081600019168152505081806001019250506114c5565b82518a511015611535576000975061159d565b600090505b825181101561159857828181518110151561155157fe5b90602001906020020151600019168a8281518110151561156d57fe5b906020019060200201516000191614151561158b576000975061159d565b808060010191505061153a565b600197505b50505050505050949350505050565b60006180005460005260206000f35b60006020528060005260406000206000915054906101000a900460ff1681565b600081519050919050565b60006115fc82600161128e90919063ffffffff16565b9050919050565b80600460006101000a81548177ffffffffffffffffffffffffffffffffffffffffffffffff0219169083680100000000000000009004021790555050565b6000806000807f01000000000000000000000000000000000000000000000000000000000000000284600060188110151561167857fe5b1a7f0100000000000000000000000000000000000000000000000000000000000000027effffffffffffffffffffffffffffffffffffffffffffffffffffffffffffff191614156116cc5760019250611705565b6116e084600161128e90919063ffffffff16565b91506116f684600161284490919063ffffffff16565b905080151561170457600292505b5b50915091565b600080606060009150833b9150816040519080825280601f01601f19166020018201604052801561174b5781602001602082028038833980820191505090505b509050818152833b600060208301863c611764816118a7565b92505050919050565b60606117796001612972565b905090565b600080600061178c8561170b565b60ff1614156117a9576117a0858585611830565b91509150611817565b6040517f08c379a00000000000000000000000000000000000000000000000000000000081526004018080602001828103825260208152602001807f70726f63656475726520636f6465206661696c65642076616c69646174696f6e81525060200191505060405180910390fd5b935093915050565b606061182b6001612d74565b905090565b60008060008068010000000000000000028667ffffffffffffffff1916141561185c576001925061189e565b611870866001612e7590919063ffffffff16565b90508015611881576003925061189e565b6118998686866001612ea0909392919063ffffffff16565b508491505b50935093915050565b600080600080600092505b845183101561223a5784838151811015156118c957fe5b9060200101517f010000000000000000000000000000000000000000000000000000000000000090047f0100000000000000000000000000000000000000000000000000000000000000027f01000000000000000000000000000000000000000000000000000000000000009004915060008260ff16141561194a5761222d565b60018260ff16141561195b5761222d565b60028260ff16141561196c5761222d565b60038260ff16141561197d5761222d565b60048260ff16141561198e5761222d565b60058260ff16141561199f5761222d565b60068260ff1614156119b05761222d565b60078260ff1614156119c15761222d565b60088260ff1614156119d25761222d565b60098260ff1614156119e35761222d565b600a8260ff1614156119f45761222d565b600b8260ff161415611a055761222d565b60108260ff161415611a165761222d565b60118260ff161415611a275761222d565b60128260ff161415611a385761222d565b60138260ff161415611a495761222d565b60148260ff161415611a5a5761222d565b60158260ff161415611a6b5761222d565b60168260ff161415611a7c5761222d565b60178260ff161415611a8d5761222d565b60188260ff161415611a9e5761222d565b60198260ff161415611aaf5761222d565b601a8260ff161415611ac05761222d565b601b8260ff161415611ad15761222d565b601c8260ff161415611ae25761222d565b601d8260ff161415611af35761222d565b60208260ff161415611b045761222d565b60308260ff161415611b155761222d565b60318260ff161415611b265761222d565b60328260ff161415611b375761222d565b60338260ff161415611b485761222d565b60348260ff161415611b595761222d565b60358260ff161415611b6a5761222d565b60368260ff161415611b7b5761222d565b60378260ff161415611b8c5761222d565b60388260ff161415611b9d5761222d565b60398260ff161415611bae5761222d565b603a8260ff161415611bbf5761222d565b603b8260ff161415611bd05761222d565b603c8260ff161415611be15761222d565b603d8260ff161415611bf25761222d565b603e8260ff161415611c035761222d565b603f8260ff161415611c145761222d565b60408260ff161415611c255761222d565b60418260ff161415611c365761222d565b60428260ff161415611c475761222d565b60438260ff161415611c585761222d565b60448260ff161415611c695761222d565b60408260ff161415611c7a5761222d565b60508260ff161415611c8b5761222d565b60518260ff161415611c9c5761222d565b60528260ff161415611cad5761222d565b60538260ff161415611cbe5761222d565b60548260ff161415611ccf5761222d565b60558260ff161415611ce4576002935061223f565b60568260ff161415611cf55761222d565b60578260ff161415611d065761222d565b60588260ff161415611d175761222d565b60598260ff161415611d285761222d565b605a8260ff161415611d395761222d565b605b8260ff161415611d4a5761222d565b60608260ff1610158015611d625750607f8260ff1611155b15611d7357605f820360ff16830192505b60808260ff161415611d845761222d565b60818260ff161415611d955761222d565b60828260ff161415611da65761222d565b60838260ff161415611db75761222d565b60848260ff161415611dc85761222d565b60858260ff161415611dd95761222d565b60868260ff161415611dea5761222d565b60878260ff161415611dfb5761222d565b60888260ff161415611e0c5761222d565b60898260ff161415611e1d5761222d565b608a8260ff161415611e2e5761222d565b608b8260ff161415611e3f5761222d565b608c8260ff161415611e505761222d565b608d8260ff161415611e615761222d565b608e8260ff161415611e725761222d565b608f8260ff161415611e835761222d565b60908260ff161415611e945761222d565b60918260ff161415611ea55761222d565b60928260ff161415611eb65761222d565b60938260ff161415611ec75761222d565b60948260ff161415611ed85761222d565b60958260ff161415611ee95761222d565b60968260ff161415611efa5761222d565b60978260ff161415611f0b5761222d565b60988260ff161415611f1c5761222d565b60998260ff161415611f2d5761222d565b609a8260ff161415611f3e5761222d565b609b8260ff161415611f4f5761222d565b609c8260ff161415611f605761222d565b609d8260ff161415611f715761222d565b609e8260ff161415611f825761222d565b609f8260ff161415611f935761222d565b60a08260ff161415611fa8576003935061223f565b60a18260ff161415611fb95761222d565b60a28260ff161415611fce576005935061223f565b60a38260ff161415611fe3576006935061223f565b60a48260ff161415611ff8576007935061223f565b60f08260ff16141561200d576008935061223f565b60f18260ff161415612022576009935061223f565b60f28260ff16141561203757600a935061223f565b60f38260ff1614156120485761222d565b60f48260ff1614156121cf5760009050600283101561206a57600090506121bb565b605a7f010000000000000000000000000000000000000000000000000000000000000002856001850381518110151561209f57fe5b9060200101517f010000000000000000000000000000000000000000000000000000000000000090047f0100000000000000000000000000000000000000000000000000000000000000027effffffffffffffffffffffffffffffffffffffffffffffffffffffffffffff19161480156121b8575060337f010000000000000000000000000000000000000000000000000000000000000002856002850381518110151561214957fe5b9060200101517f010000000000000000000000000000000000000000000000000000000000000090047f0100000000000000000000000000000000000000000000000000000000000000027effffffffffffffffffffffffffffffffffffffffffffffffffffffffffffff1916145b90505b80156121c65761222d565b600b935061223f565b60f58260ff1614156121e457600c935061223f565b60fa8260ff1614156121f55761222d565b60fd8260ff1614156122065761222d565b60fe8260ff1614156122175761222d565b60ff8260ff16141561222c57600d935061223f565b5b82806001019350506118b2565b600093505b505050919050565b806180005550565b6000815160008301915050919050565b6000815460005260206000f35b60606122786001612f8f565b905090565b60008060008060007f0100000000000000000000000000000000000000000000000000000000000000028860006018811015156122b657fe5b1a7f0100000000000000000000000000000000000000000000000000000000000000027effffffffffffffffffffffffffffffffffffffffffffffffffffffffffffff1916141561230a57600193506124bd565b61231e886001612e7590919063ffffffff16565b925082151561233057600393506124bd565b87600360006101000a81548177ffffffffffffffffffffffffffffffffffffffffffffffff0219169083680100000000000000009004021790555061237f88600161128e90919063ffffffff16565b9150600090506123a6565b6000602082066020038201604051915080820160405250919050565b6123ec565b6000602082066020038201604051915080156123e05760005b81811415156123de576000818401526020810190506123c4565b505b80820160405250919050565b60008751156123fa57600490505b86518101905080602081101561240f57602090505b6124188161238a565b89511561242957895160208b012081525b8851600082018b511561243d576004830190505b8115612461575b811561246057818b015160018303820153600182039150612444565b5b8961246b816123ab565b8181888760008d5af297506000600355600088141561249c5761248e602061238a565b815162035b60018152602081f35b60018814156124a9578181f35b505050505050508015156124bc57605593505b5b505050949350505050565b6124d061373c565b60008060008060008060006124e489612757565b96506124f160008861282a565b886000019060ff16908160ff168152505061251060006001890161282a565b886020019073ffffffffffffffffffffffffffffffffffffffff16908173ffffffffffffffffffffffffffffffffffffffff168152505061255560006002890161282a565b95508560405190808252806020026020018201604052801561259157816020015b61257e613794565b8152602001906001900390816125765790505b50886040018190525060009450600093505b60fd847effffffffffffffffffffffffffffffffffffffffffffffffffffffffffffff16101561274b5785851015156125db5761274b565b6125eb60008560038a010161282a565b9250612600600060018660038b01010161282a565b88604001518681518110151561261257fe5b906020019060200201516000019060ff16908160ff1681525050600183039150816040519080825280602002602001820160405280156126615781602001602082028038833980820191505090505b5088604001518681518110151561267457fe5b9060200190602002015160200181905250600090505b81817effffffffffffffffffffffffffffffffffffffffffffffffffffffffffffff161015612731576126c860008260028760038c0101010161282a565b8860400151868151811015156126da57fe5b9060200190602002015160200151827effffffffffffffffffffffffffffffffffffffffffffffffffffffffffffff1681518110151561271657fe5b9060200190602002018181525050808060010191505061268a565b8284019350848060010195505083806001019450506125a3565b50505050505050919050565b60008060405180807f70726f636564757265506f696e7465720000000000000000000000000000000081525060100190506040518091039020905060088377ffffffffffffffffffffffffffffffffffffffffffffffff1660c083600190047dffffffffffffffffffffffffffffffffffffffffffffffffffffffffffff169060020a02177dffffffffffffffffffffffffffffffffffffffffffffffffffffffffffff167effffffffffffffffffffffffffffffffffffffffffffffffffffffffffffff169060020a02915050919050565b6000806128378484613131565b9050805491505092915050565b600061284e61373c565b600080600080600080600061286e8a6801000000000000000090046124c8565b97506000886000015160ff1614156128895760009850612964565b612891613169565b965061289e60008861282a565b955085886000015160ff16111515612963576128c58a680100000000000000009004612757565b94506128d488600001516131ef565b93506128e2600187036131ef565b92506128ef60008461282a565b91506128fa82612757565b905061290f6000828a6000015160ff1661327f565b6129356000858477ffffffffffffffffffffffffffffffffffffffffffffffff1661327f565b612942600084600061327f565b61294b85613296565b61295a6000886001890361327f565b60019850612964565b5b505050505050505092915050565b60608060006060600080600061298661373c565b60008060006129948c612d74565b99508951985061010089026040519080825280602002602001820160405280156129cd5781602001602082028038833980820191505090505b50975060009650600095505b88867effffffffffffffffffffffffffffffffffffffffffffffffffffffffffffff161015612d625789867effffffffffffffffffffffffffffffffffffffffffffffffffffffffffffff16815181101515612a3157fe5b906020019060200201516801000000000000000090049450612a52856124c8565b93508477ffffffffffffffffffffffffffffffffffffffffffffffff168888815181101515612a7d57fe5b90602001906020020181815250508680600101975050836000015160ff168888815181101515612aa957fe5b90602001906020020181815250508680600101975050836020015173ffffffffffffffffffffffffffffffffffffffff168888815181101515612ae857fe5b906020019060200201818152505086806001019750508360400151518888815181101515612b1257fe5b90602001906020020181815250508680600101975050600092505b836040015151837effffffffffffffffffffffffffffffffffffffffffffffffffffffffffffff161015612d555760018460400151847effffffffffffffffffffffffffffffffffffffffffffffffffffffffffffff16815181101515612b9057fe5b906020019060200201516020015151019150818888815181101515612bb157fe5b906020019060200201818152505086806001019750508360400151837effffffffffffffffffffffffffffffffffffffffffffffffffffffffffffff16815181101515612bfa57fe5b906020019060200201516000015160ff168888815181101515612c1957fe5b90602001906020020181815250508680600101975050600090505b8360400151837effffffffffffffffffffffffffffffffffffffffffffffffffffffffffffff16815181101515612c6757fe5b906020019060200201516020015151817effffffffffffffffffffffffffffffffffffffffffffffffffffffffffffff161015612d48578360400151837effffffffffffffffffffffffffffffffffffffffffffffffffffffffffffff16815181101515612cd157fe5b9060200190602002015160200151817effffffffffffffffffffffffffffffffffffffffffffffffffffffffffffff16815181101515612d0d57fe5b906020019060200201518888815181101515612d2557fe5b906020019060200201818152505086806001019750508080600101915050612c34565b8280600101935050612b2d565b85806001019650506129d9565b879a5050505050505050505050919050565b60606000806000612d83613169565b9250612d9060008461282a565b915081604051908082528060200260200182016040528015612dc15781602001602082028038833980820191505090505b509350600090505b81817effffffffffffffffffffffffffffffffffffffffffffffffffffffffffffff161015612e6d57612e02600060028386010161282a565b680100000000000000000284827effffffffffffffffffffffffffffffffffffffffffffffffffffffffffffff16815181101515612e3c57fe5b9060200190602002019067ffffffffffffffff1916908167ffffffffffffffff191681525050600181019050612dc9565b505050919050565b600080612e976000612e9285680100000000000000009004612757565b61282a565b11905092915050565b6000612eaa61373c565b600080612ec2876801000000000000000090046124c8565b925085836020019073ffffffffffffffffffffffffffffffffffffffff16908173ffffffffffffffffffffffffffffffffffffffff1681525050608085511115612f0b57600080fd5b612f1583866132b6565b6000836000015160ff161115612f2e5760019350612f84565b612f36613169565b9150612f4360008361282a565b905060018101836000019060ff16908160ff1681525050612f696000836001840161327f565b612f7f83886801000000000000000090046134ad565b600093505b505050949350505050565b606080600060606000806000806000612fa78a612d74565b9750875196506101018702604051908082528060200260200182016040528015612fe05781602001602082028038833980820191505090505b50955060009450600093505b86847effffffffffffffffffffffffffffffffffffffffffffffffffffffffffffff1610156131215787847effffffffffffffffffffffffffffffffffffffffffffffffffffffffffffff1681518110151561304457fe5b90602001906020020151680100000000000000009004925061306583612757565b91508277ffffffffffffffffffffffffffffffffffffffffffffffff16868681518110151561309057fe5b90602001906020020181815250508480600101955050600090505b610100817effffffffffffffffffffffffffffffffffffffffffffffffffffffffffffff161015613114576130e3600082840161282a565b86868151811015156130f157fe5b9060200190602002018181525050848060010195505080806001019150506130ab565b8380600101945050612fec565b8598505050505050505050919050565b600060f88360ff169060020a02827effffffffffffffffffffffffffffffffffffffffffffffffffffffffffffff1617905092915050565b60008060405180807f6b6579506f696e74657200000000000000000000000000000000000000000000815250600a0190506040518091039020905060f081780100000000000000000000000000000000000000000000000090047effffffffffffffffffffffffffffffffffffffffffffffffffffffffffffff169060020a0291505090565b60008060405180807f6b6579506f696e74657200000000000000000000000000000000000000000000815250600a019050604051809103902090508260ff16600160f083780100000000000000000000000000000000000000000000000090047effffffffffffffffffffffffffffffffffffffffffffffffffffffffffffff169060020a020101915050919050565b600061328b8484613131565b905081815550505050565b6132a3600082600061327f565b6132b3600060018301600061327f565b50565b60008060008060008060009550600094505b86518510156133055786858151811015156132df57fe5b9060200190602002015193508385019450858060010196505084806001019550506132c8565b8560405190808252806020026020018201604052801561333f57816020015b61332c613794565b8152602001906001900390816133245790505b50886040018190525060009250600094505b86518510156134a357868581518110151561336857fe5b9060200190602002015193508480600101955050600184039150816040519080825280602002602001820160405280156133b15781602001602082028038833980820191505090505b508860400151848151811015156133c457fe5b906020019060200201516020018190525086858151811015156133e357fe5b906020019060200201518860400151848151811015156133ff57fe5b906020019060200201516000019060ff16908160ff16815250508480600101955050600090505b8181101561349657868581518110151561343c57fe5b9060200190602002015188604001518481518110151561345857fe5b90602001906020020151602001518281518110151561347357fe5b906020019060200201818152505084806001019550508080600101915050613426565b8280600101935050613351565b5050505050505050565b6000806134bd84600001516131ef565b91506134e56000838577ffffffffffffffffffffffffffffffffffffffffffffffff1661327f565b6134ee83612757565b90506134fc84600083613502565b50505050565b6135148282856000015160ff1661327f565b61353c8260018301856020015173ffffffffffffffffffffffffffffffffffffffff1661327f565b61354f826002830185604001515161327f565b61355a83838361355f565b505050565b6000806000806000809450600093505b876040015151847effffffffffffffffffffffffffffffffffffffffffffffffffffffffffffff161015613732578760400151847effffffffffffffffffffffffffffffffffffffffffffffffffffffffffffff168151811015156135d057fe5b90602001906020020151602001515192506001830191506135f7878660038901018461327f565b8480600101955050613652878660038901018a60400151877effffffffffffffffffffffffffffffffffffffffffffffffffffffffffffff1681518110151561363c57fe5b906020019060200201516000015160ff1661327f565b8480600101955050600090505b82817effffffffffffffffffffffffffffffffffffffffffffffffffffffffffffff16101561372557613710878660038901018a60400151877effffffffffffffffffffffffffffffffffffffffffffffffffffffffffffff168151811015156136c557fe5b9060200190602002015160200151847effffffffffffffffffffffffffffffffffffffffffffffffffffffffffffff1681518110151561370157fe5b9060200190602002015161327f565b8480600101955050808060010191505061365f565b838060010194505061356f565b5050505050505050565b606060405190810160405280600060ff168152602001600073ffffffffffffffffffffffffffffffffffffffff168152602001606081525090565b6040805190810160405280600060ff168152602001606081525090565b6040805190810160405280600060ff1681526020016060815250905600a165627a7a72305820c773ed0e86f54b9552a5a00854f588e5b513a706b1514a0105e1964a159943540029",
  "source": "pragma solidity ^0.4.17;\r\n\r\nimport \"./Factory.sol\";\r\nimport \"./ProcedureTable.sol\";\r\n\r\nlibrary WhatIsMyAddress {\r\n    function get() public view returns (address) {\r\n        return msg.sender;\r\n    }\r\n}\r\n\r\ncontract Kernel is Factory {\r\n    event KernelLog(string message);\r\n    using ProcedureTable for ProcedureTable.Self;\r\n    ProcedureTable.Self procedures;\r\n    address kernelAddress;\r\n    bytes24 currentProcedure;\r\n    bytes24 entryProcedure;\r\n\r\n    struct Process {\r\n        // Equal to the index of the key of this item in keys, plus 1.\r\n        uint8 keyIndex;\r\n        address location;\r\n    }\r\n\r\n    constructor() public {\r\n        // kernelAddress = WhatIsMyAddress.get();\r\n        // This is an example kernel global variable for testing.\r\n        assembly {\r\n            sstore(0x8000,3)\r\n        }\r\n    }\r\n\r\n    function testGetter() public view returns(uint256) {\r\n        assembly {\r\n            mstore(0,sload(0x8000))\r\n            return(0,0x20)\r\n        }\r\n    }\r\n\r\n    function anyTestGetter(uint256 addr) public view returns(uint256) {\r\n        assembly {\r\n            mstore(0,sload(addr))\r\n            return(0,0x20)\r\n        }\r\n    }\r\n\r\n    function testSetter(uint256 value) public {\r\n        assembly {\r\n            sstore(0x8000,value)\r\n        }\r\n    }\r\n\r\n    function parse32ByteValue(uint256 startOffset) pure internal returns (uint256) {\r\n        uint256 value = 0;\r\n        for (uint256 i = 0; i < 32; i++) {\r\n            value = value << 8;\r\n            value = value | uint256(msg.data[startOffset+i]);\r\n        }\r\n        return value;\r\n    }\r\n\r\n    function setEntryProcedure(bytes24 key) public {\r\n        entryProcedure = key;\r\n    }\r\n\r\n    // Check if a transaction is external.\r\n    function isExternal() internal view returns (bool) {\r\n        // If the current transaction is from the procedure we are executing,\r\n        // then it is a systemcall. Otherwise it is an external transaction.\r\n        // We have in storage a value (currentProcedure) which states which\r\n        // procedure the kernel is currently executing. If we have this value\r\n        // then something is running, so it must be an internal transaction.\r\n        // If it is empty, it means we are not executing anything, and it is an\r\n        // external transaction.\r\n\r\n        // While the kernel is executing a procedure, nothing else can run\r\n        // across the whole blockchain, therefore we must be receiving a\r\n        // transaction from the procedure set in \"currentProcedure\"\r\n\r\n        // TODO: we will need to reserve a value for \"not executing anything\"\r\n        // If the transaction is from this procedure...\r\n        return (currentProcedure == 0);\r\n\r\n    }\r\n\r\n    // This is what we execute when we receive an external transaction.\r\n    function callGuardProcedure(address /* sender */, bytes /* data */) internal {\r\n        // TODO: we need to pass through the sender somehow\r\n        uint256 retSize = 32;\r\n        uint256 retVal = executeProcedure(entryProcedure, \"\", msg.data, retSize);\r\n        assembly {\r\n            mstore(0,retVal)\r\n            return(0,retSize)\r\n        }\r\n    }\r\n\r\n    // This is the fallback function which is used to handle system calls. This\r\n    // is only called if the other functions fail.\r\n    function() public {\r\n        bool cap;\r\n        uint256 capIndex;\r\n        // This is the entry point for the kernel\r\n\r\n        // If it is an external account, we forward it straight to the init\r\n        // procedure. We currently shouldn't reach this point, as we usually use\r\n        // \"executeProcedure\"\r\n        if (isExternal()) {\r\n            callGuardProcedure(msg.sender, msg.data);\r\n        }\r\n\r\n        // Parse the system call\r\n        uint8 sysCallCapType = uint8(msg.data[0]);\r\n\r\n        // 0x00 - not a syscall\r\n        // 0x01 - read syscall\r\n        // 0x03 - exec syscall\r\n        // 0x07 - write syscall\r\n        // 0x09 - log syscall\r\n\r\n        // log1(bytes32(currentProcedure), bytes32(\"current-procedure\"));\r\n\r\n        // Here we decode the system call (if there is one)\r\n        if (sysCallCapType == 0) {\r\n            // non-syscall case\r\n        } else if (sysCallCapType == 0x03) {\r\n            // This is a call system call\r\n            // parse a 32-byte value at offset 1 (offset 0 is the capType byte)\r\n            capIndex = parse32ByteValue(1);\r\n            // parse a 32-byte value at offset 1 (offset 0 is the capType byte,\r\n            // offset 1 is the capIndex (32 bytes)\r\n            // We also perform a shift as this is 24 byte value, not a 32 byte\r\n            // value\r\n            bytes24 procedureKey = bytes24(parse32ByteValue(1+32)/0x10000000000000000);\r\n            uint256 returnLength = uint256(parse32ByteValue(1+32*2));\r\n            uint256 dataLength;\r\n            // log1(bytes32(msg.data.length), bytes32(\"msg.data.length\"));\r\n            if (msg.data.length > (1+3*32)) {\r\n                dataLength = msg.data.length - (1+3*32);\r\n            } else {\r\n                dataLength = 0;\r\n            }\r\n            cap = procedures.checkCallCapability(uint192(currentProcedure), procedureKey, capIndex);\r\n            address procedureAddress = procedures.get(procedureKey);\r\n            // Note the procedure we are currently running, we will put this\r\n            // back into the \"currentProcedure\" after we have finished the call.\r\n            bytes24 previousProcedure = currentProcedure;\r\n            // We set the value for the current procedure in the kernel so that\r\n            // it knows which procedure it is executing (this is important for\r\n            // looking up capabilities).\r\n            currentProcedure = procedureKey;\r\n            // log1(bytes32(procedureKey),bytes32(\"calling\"));\r\n            if (cap) {\r\n                // log1(bytes32(\"permitted\"),bytes32(\"call-cap\"));\r\n                assembly {\r\n                    function malloc(size) -> result {\r\n                        // align to 32-byte words\r\n                        let rsize := add(size,sub(32,mod(size,32)))\r\n                        // get the current free mem location\r\n                        result :=  mload(0x40)\r\n                        // Bump the value of 0x40 so that it holds the next\r\n                        // available memory location.\r\n                        mstore(0x40,add(result,rsize))\r\n                    }\r\n\r\n                    function mallocZero(size) -> result {\r\n                        // align to 32-byte words\r\n                        let rsize := add(size,sub(32,mod(size,32)))\r\n                        // get the current free mem location\r\n                        result :=  mload(0x40)\r\n                        // zero-out the memory\r\n                        // if there are some bytes to be allocated (rsize is not zero)\r\n                        if rsize {\r\n                            // loop through the address and zero them\r\n                            for { let n := 0 } iszero(eq(n, rsize)) { n := add(n, 32) } {\r\n                                mstore(add(result,n),0)\r\n                            }\r\n\r\n                        }\r\n                        // Bump the value of 0x40 so that it holds the next\r\n                        // available memory location.\r\n                        mstore(0x40,add(result,rsize))\r\n                    }\r\n\r\n                    // Retrieve the address of new available memory from address 0x40\r\n                    // we will use this as the start of the input (ins)\r\n                    let ins\r\n                    let inl\r\n                    if dataLength {\r\n                        // If there is any data associated with this procedure\r\n                        // call (this inlcudes the data such as a function\r\n                        // selector) we need to set that as the input data to\r\n                        // the delegatecall.\r\n                        // First we must allocate some memory.\r\n                        ins :=  malloc(dataLength)\r\n                        // Then we store that data at this allocated memory\r\n                        // location\r\n                        calldatacopy(ins, 97, dataLength)\r\n                        inl := dataLength\r\n                    }\r\n                    if iszero(dataLength) {\r\n                        // If there is not data to be sent we just set the\r\n                        // location and length of the input data to zero. The\r\n                        // location doesn't actually matter as long the length\r\n                        // is zero.\r\n                        ins := 0\r\n                        inl := 0\r\n                    }\r\n                    let retLoc := mallocZero(returnLength)\r\n                    let status := delegatecall(\r\n                        // The gas we are budgeting, which is always all the\r\n                        // available gas\r\n                        gas,\r\n                        // The address for the chosen procedure which we\r\n                        // obtained earlier\r\n                        procedureAddress,\r\n                        // The starting memory offset of the innput data\r\n                        ins,\r\n                        // The length of the input data\r\n                        inl,\r\n                        // The starting memory offset to place the output data\r\n                        retLoc,\r\n                        // The length of the output data\r\n                        returnLength)\r\n                    // We need to restore the previous procedure as the current\r\n                    // procedure, this can simply be on the stack\r\n                    sstore(currentProcedure_slot,div(previousProcedure,exp(0x100,8)))\r\n                    if iszero(status) {\r\n                        let errStore := malloc(0x20)\r\n                        mstore(errStore,add(22,mload(retLoc)))\r\n                        revert(errStore,0x20)\r\n                    }\r\n                    if eq(status,1) {\r\n                        return(retLoc,returnLength)\r\n                    }\r\n                }\r\n            } else {\r\n                // log1(bytes32(\"not-permitted\"),bytes32(\"call-cap\"));\r\n                assembly {\r\n                    // 33 means the capability was rejected\r\n                    mstore(0,33)\r\n                    revert(0,0x20)\r\n                }\r\n            }\r\n        } else if (sysCallCapType == 0x07) {\r\n            // This is a store system call\r\n            // Here we have established that we are processing a write call and\r\n            // we must destructure the necessary values.\r\n            capIndex = parse32ByteValue(1);\r\n            uint256 writeAddress = parse32ByteValue(1+32*1);\r\n            uint256 writeValue = parse32ByteValue(1+32*2);\r\n            cap = procedures.checkWriteCapability(uint192(currentProcedure), writeAddress, capIndex);\r\n            if (cap) {\r\n                assembly {\r\n                    sstore(writeAddress, writeValue)\r\n                    // We don't need to return anything\r\n                    return(0,0)\r\n                }\r\n            } else {\r\n                assembly {\r\n                    mstore(0,22)\r\n                    return(0,0x20)\r\n                }\r\n            }\r\n        } else if (sysCallCapType == 0x09) {\r\n            // This is a log system call\r\n            // Here we have established that we are processing a write call and\r\n            // we must destructure the necessary values.\r\n            capIndex = parse32ByteValue(1);\r\n            uint256 nTopics = parse32ByteValue(1+32*1);\r\n            bytes32[] memory topicVals = new bytes32[](nTopics);\r\n            for (uint256 i = 0; i < nTopics; i++) {\r\n                topicVals[i] = bytes32(parse32ByteValue(1+32*(2+i)));\r\n            }\r\n            bytes32 logValue = bytes32(parse32ByteValue(1+32*(2+nTopics)));\r\n            cap = procedures.checkLogCapability(uint192(currentProcedure), topicVals, capIndex);\r\n            if (cap) {\r\n                if (nTopics == 0) {\r\n                    log0(logValue);\r\n                    assembly {\r\n                        // We don't need to return anything\r\n                        return(0,0)\r\n                    }\r\n                } else if (nTopics == 1) {\r\n                    log1(logValue, topicVals[0]);\r\n                    assembly {\r\n                        // We don't need to return anything\r\n                        return(0,0)\r\n                    }\r\n                } else if (nTopics == 2) {\r\n                    log2(logValue, topicVals[0], topicVals[1]);\r\n                    assembly {\r\n                        // We don't need to return anything\r\n                        return(0,0)\r\n                    }\r\n                } else if (nTopics == 3) {\r\n                    log3(logValue, topicVals[0], topicVals[1], topicVals[2]);\r\n                    assembly {\r\n                        // We don't need to return anything\r\n                        return(0,0)\r\n                    }\r\n                } else if (nTopics == 4) {\r\n                    log4(logValue, topicVals[0], topicVals[1], topicVals[2], topicVals[3]);\r\n                    assembly {\r\n                        // We don't need to return anything\r\n                        return(0,0)\r\n                    }\r\n                } else {\r\n                    assembly {\r\n                        // Revert with an error code\r\n                        mstore(0,44)\r\n                        revert(0,0x20)\r\n                    }\r\n                }\r\n            } else {\r\n                assembly {\r\n                    mstore(0,33)\r\n                    revert(0,0x20)\r\n                }\r\n            }\r\n            assembly{\r\n                mstore(0xd,152)\r\n                return(0xd,0x20)\r\n            }\r\n        } else {\r\n            // default; fallthrough action\r\n            assembly {\r\n                mstore8(0xb0,5)\r\n                log0(0xb0, 1)\r\n            }\r\n        }\r\n    }\r\n\r\n    // Create a procedure without  going through any validation. This is mainly\r\n    // used for testing and should not exist in a production kernel.\r\n    // TODO: Currently this calls the normal createAnyProcedure function, which\r\n    // needs to be updated to do validation.\r\n    function registerProcedure(bytes24 name, address procedureAddress, uint256[] caps) public returns (uint8 err, address retAddress) {\r\n        if (validateContract(procedureAddress) == 0) {\r\n            return registerAnyProcedure(name, procedureAddress, caps);\r\n        } else {\r\n            revert(\"procedure code failed validation\");\r\n        }\r\n    }\r\n\r\n    // Create a validated procedure.\r\n    function registerAnyProcedure(bytes24 name, address procedureAddress, uint256[] caps) public returns (uint8 err, address retAddress) {\r\n        // Check whether the first byte is null and set err to 1 if so\r\n        if (name == 0) {\r\n            err = 1;\r\n            return;\r\n        }\r\n\r\n        // Check whether the address exists\r\n        bool exist = procedures.contains(name);\r\n        if (exist) {\r\n            err = 3;\r\n            return;\r\n        }\r\n        \r\n        procedures.insert(name, procedureAddress, caps);\r\n        \r\n        retAddress = procedureAddress;\r\n    }\r\n\r\n    function deleteProcedure(bytes24 name) public returns (uint8 err, address procedureAddress) {\r\n        // Check whether the first byte is null and set err to 1 if so\r\n        if (name[0] == 0) {\r\n            err = 1;\r\n            return;\r\n        }\r\n\r\n        procedureAddress = procedures.get(name);\r\n        bool success = procedures.remove(name);\r\n\r\n        // Check whether the address exists\r\n        if (!success) {err = 2;}\r\n    }\r\n\r\n    function listProcedures() public view returns (bytes24[] memory) {\r\n        return procedures.getKeys();\r\n    }\r\n\r\n    function returnRawProcedureTable() public view returns (uint256[]) {\r\n        return procedures.returnRawProcedureTable();\r\n    }\r\n\r\n    function returnProcedureTable() public view returns (uint256[]) {\r\n        return procedures.returnProcedureTable();\r\n    }\r\n\r\n    // function nProcedures() public view returns (uint256) {\r\n    //     return procedures.size();\r\n    // }\r\n\r\n\r\n    function getProcedure(bytes24 name) public view returns (address) {\r\n        return procedures.get(name);\r\n    }\r\n\r\n    function executeProcedure(bytes24 name, string fselector, bytes payload, uint256 retSize) public returns (uint256 retVal) {\r\n        // // Check whether the first byte is null and set err to 1 if so\r\n        if (name[0] == 0) {\r\n            retVal = 1;\r\n            return;\r\n        }\r\n        // Check whether the address exists\r\n        bool exist = procedures.contains(name);\r\n        if (!exist) {\r\n            retVal = 3;\r\n            return;\r\n        }\r\n        // TODO: I believe this should use the keyindex\r\n        // assembly {\r\n        //     sstore(currentProcedure_slot,div(name,exp(0x100,8)))\r\n        // }\r\n        currentProcedure = name;\r\n        address procedureAddress = procedures.get(name);\r\n        bool status = false;\r\n        assembly {\r\n            function malloc(size) -> result {\r\n                // align to 32-byte words\r\n                let rsize := add(size,sub(32,mod(size,32)))\r\n                // get the current free mem location\r\n                result :=  mload(0x40)\r\n                // Bump the value of 0x40 so that it holds the next\r\n                // available memory location.\r\n                mstore(0x40,add(result,rsize))\r\n            }\r\n            function mallocZero(size) -> result {\r\n                // align to 32-byte words\r\n                let rsize := add(size,sub(32,mod(size,32)))\r\n                // get the current free mem location\r\n                result :=  mload(0x40)\r\n                // zero-out the memory\r\n                // if there are some bytes to be allocated (rsize is not zero)\r\n                if rsize {\r\n                    // loop through the address and zero them\r\n                    for { let n := 0 } iszero(eq(n, rsize)) { n := add(n, 32) } {\r\n                        mstore(add(result,n),0)\r\n                    }\r\n\r\n                }\r\n                // Bump the value of 0x40 so that it holds the next\r\n                // available memory location.\r\n                mstore(0x40,add(result,rsize))\r\n            }\r\n            // Allocate new memory on the stack for function selector and\r\n            // payload data.\r\n            let inl := 0\r\n            // if we have a function selector, we start with a length of 4\r\n            // bytes\r\n            // If there is no function selector, send nothing. mload(fselector)\r\n            // is the length.\r\n            if mload(fselector) {\r\n                // set the input length to 4\r\n                inl := 4\r\n            }\r\n            // Then we add on the length of the payload\r\n            inl := add(inl,mload(payload))\r\n\r\n            // n is the actual size we allocate for the input buffer (which may\r\n            // be a little more than we actually need to send)\r\n            let n := inl\r\n            // We need at least 0x20 bytes to perform our hash in, even though\r\n            // we won't send it all\r\n            if lt(n,0x20) {\r\n                n := 0x20\r\n            }\r\n            let ins := malloc(n)\r\n\r\n            // next we need to create the function selector hash (if it exists)\r\n            if mload(fselector) {\r\n                // we don't need to allocate memory as we already have enough\r\n                // space in the input buffer (we always allocate at lest 0x20)\r\n                // // allocate some memory to work with\r\n                // let n :=  malloc(0x20)\r\n                // Take the keccak256 hash of that string, store at location n\r\n                // mstore\r\n                // Argument #1: The address (n) calculated above, to store the\r\n                //    hash.\r\n                // Argument #2: The hash, calculted as follows:\r\n                //   keccack256\r\n                //   Argument #1: The location of the fselector string (which\r\n                //     is simply the name of the variable) with an added offset\r\n                //     of 0x20, as the first 0x20 is reserved for the length of\r\n                //     the string.\r\n                //   Argument #2: The length of the string, which is loaded from\r\n                //     the first 0x20 of the string.\r\n                // This hash must be written first, as it write 32 bytes and\r\n                // would overwrite our payload data. We will store the payload\r\n                // data after this so the unused hash bytes get overwrittem.\r\n                mstore(ins,keccak256(add(fselector,0x20),mload(fselector)))\r\n            }\r\n            // Copy the payload data into the input buffer\r\n            // i starts as the payload length\r\n            let i := mload(payload)\r\n            // The start offset of payload data (either 0 or 4);\r\n            let payloadStart := add(ins,0)\r\n            if mload(fselector) {\r\n                payloadStart := add(ins,4)\r\n            }\r\n            if i {\r\n                for { } i { i := sub(i,  1) } {\r\n                    mstore8(add(payloadStart,sub(i,  1)),mload(add(payload,i)))\r\n                }\r\n            }\r\n            // There is no return value, therefore it's length is 0 bytes long\r\n            // REVISION: lets assume a 32 byte return value for now\r\n            let outl := retSize\r\n            let outs := mallocZero(outl)\r\n\r\n            status := callcode(gas,procedureAddress,0,ins,inl,outs,outl)\r\n            // Zero-out the currentProcedure\r\n            sstore(currentProcedure_slot,0)\r\n            if eq(status,0) {\r\n                let errStore := malloc(0x20)\r\n                mstore(errStore,add(220000,mload(outs)))\r\n                // mstore(0x40,235)\r\n                // log1(errStore,0x20,\"returnedErr\")\r\n                return(errStore,0x20)\r\n            }\r\n            if eq(status,1) {\r\n                // log1(outs,outl,\"returned\")\r\n                return(outs,outl)\r\n            }\r\n        }\r\n        if (!status) {\r\n            retVal = 85;\r\n        }\r\n    }\r\n}",
  "sourcePath": "D:\\jakedoc\\Projects\\beakeros\\contracts\\Kernel.sol",
  "compiler": {
    "name": "solc",
    "version": "0.4.24+commit.e67f0147.Emscripten.clang"
  },
  "schemaVersion": "2.0.1",
  "updatedAt": "2018-10-10T12:53:34.007Z"
}